{
  "_format": "hh-sol-artifact-1",
  "contractName": "BiometricToken",
  "sourceName": "contracts/Biometrics.sol",
  "abi": [
    {
      "inputs": [],
      "stateMutability": "nonpayable",
      "type": "constructor"
    },
    {
      "anonymous": false,
      "inputs": [
        {
          "indexed": true,
          "internalType": "address",
          "name": "owner",
          "type": "address"
        },
        {
          "indexed": true,
          "internalType": "address",
          "name": "approved",
          "type": "address"
        },
        {
          "indexed": true,
          "internalType": "uint256",
          "name": "tokenId",
          "type": "uint256"
        }
      ],
      "name": "Approval",
      "type": "event"
    },
    {
      "anonymous": false,
      "inputs": [
        {
          "indexed": true,
          "internalType": "address",
          "name": "owner",
          "type": "address"
        },
        {
          "indexed": true,
          "internalType": "address",
          "name": "operator",
          "type": "address"
        },
        {
          "indexed": false,
          "internalType": "bool",
          "name": "approved",
          "type": "bool"
        }
      ],
      "name": "ApprovalForAll",
      "type": "event"
    },
    {
      "anonymous": false,
      "inputs": [
        {
          "indexed": true,
          "internalType": "address",
          "name": "previousOwner",
          "type": "address"
        },
        {
          "indexed": true,
          "internalType": "address",
          "name": "newOwner",
          "type": "address"
        }
      ],
      "name": "OwnershipTransferred",
      "type": "event"
    },
    {
      "anonymous": false,
      "inputs": [
        {
          "indexed": true,
          "internalType": "address",
          "name": "from",
          "type": "address"
        },
        {
          "indexed": true,
          "internalType": "address",
          "name": "to",
          "type": "address"
        },
        {
          "indexed": true,
          "internalType": "uint256",
          "name": "tokenId",
          "type": "uint256"
        }
      ],
      "name": "Transfer",
      "type": "event"
    },
    {
      "inputs": [
        {
          "internalType": "address",
          "name": "to",
          "type": "address"
        },
        {
          "internalType": "uint256",
          "name": "tokenId",
          "type": "uint256"
        }
      ],
      "name": "approve",
      "outputs": [],
      "stateMutability": "nonpayable",
      "type": "function"
    },
    {
      "inputs": [
        {
          "internalType": "address",
          "name": "owner",
          "type": "address"
        }
      ],
      "name": "balanceOf",
      "outputs": [
        {
          "internalType": "uint256",
          "name": "",
          "type": "uint256"
        }
      ],
      "stateMutability": "view",
      "type": "function"
    },
    {
      "inputs": [],
      "name": "count",
      "outputs": [
        {
          "internalType": "uint256",
          "name": "",
          "type": "uint256"
        }
      ],
      "stateMutability": "view",
      "type": "function"
    },
    {
      "inputs": [
        {
          "internalType": "uint256",
          "name": "tokenId",
          "type": "uint256"
        }
      ],
      "name": "getApproved",
      "outputs": [
        {
          "internalType": "address",
          "name": "",
          "type": "address"
        }
      ],
      "stateMutability": "view",
      "type": "function"
    },
    {
      "inputs": [
        {
          "internalType": "uint256",
          "name": "tokenId",
          "type": "uint256"
        }
      ],
      "name": "getEncryptionKey",
      "outputs": [
        {
          "internalType": "string",
          "name": "",
          "type": "string"
        }
      ],
      "stateMutability": "view",
      "type": "function"
    },
    {
      "inputs": [
        {
          "internalType": "address",
          "name": "owner",
          "type": "address"
        },
        {
          "internalType": "address",
          "name": "operator",
          "type": "address"
        }
      ],
      "name": "isApprovedForAll",
      "outputs": [
        {
          "internalType": "bool",
          "name": "",
          "type": "bool"
        }
      ],
      "stateMutability": "view",
      "type": "function"
    },
    {
      "inputs": [
        {
          "internalType": "uint16",
          "name": "uri",
          "type": "uint16"
        }
      ],
      "name": "isContentOwner",
      "outputs": [
        {
          "internalType": "bool",
          "name": "",
          "type": "bool"
        }
      ],
      "stateMutability": "view",
      "type": "function"
    },
    {
      "inputs": [],
      "name": "name",
      "outputs": [
        {
          "internalType": "string",
          "name": "",
          "type": "string"
        }
      ],
      "stateMutability": "view",
      "type": "function"
    },
    {
      "inputs": [],
      "name": "owner",
      "outputs": [
        {
          "internalType": "address",
          "name": "",
          "type": "address"
        }
      ],
      "stateMutability": "view",
      "type": "function"
    },
    {
      "inputs": [
        {
          "internalType": "uint256",
          "name": "tokenId",
          "type": "uint256"
        }
      ],
      "name": "ownerOf",
      "outputs": [
        {
          "internalType": "address",
          "name": "",
          "type": "address"
        }
      ],
      "stateMutability": "view",
      "type": "function"
    },
    {
      "inputs": [],
      "name": "renounceOwnership",
      "outputs": [],
      "stateMutability": "nonpayable",
      "type": "function"
    },
    {
      "inputs": [
        {
          "internalType": "address",
          "name": "to",
          "type": "address"
        },
        {
          "internalType": "string",
          "name": "uri",
          "type": "string"
        },
        {
          "internalType": "string",
          "name": "encryptionKey",
          "type": "string"
        }
      ],
      "name": "safeMint",
      "outputs": [
        {
          "internalType": "uint256",
          "name": "",
          "type": "uint256"
        }
      ],
      "stateMutability": "nonpayable",
      "type": "function"
    },
    {
      "inputs": [
        {
          "internalType": "address",
          "name": "from",
          "type": "address"
        },
        {
          "internalType": "address",
          "name": "to",
          "type": "address"
        },
        {
          "internalType": "uint256",
          "name": "tokenId",
          "type": "uint256"
        }
      ],
      "name": "safeTransferFrom",
      "outputs": [],
      "stateMutability": "nonpayable",
      "type": "function"
    },
    {
      "inputs": [
        {
          "internalType": "address",
          "name": "from",
          "type": "address"
        },
        {
          "internalType": "address",
          "name": "to",
          "type": "address"
        },
        {
          "internalType": "uint256",
          "name": "tokenId",
          "type": "uint256"
        },
        {
          "internalType": "bytes",
          "name": "_data",
          "type": "bytes"
        }
      ],
      "name": "safeTransferFrom",
      "outputs": [],
      "stateMutability": "nonpayable",
      "type": "function"
    },
    {
      "inputs": [
        {
          "internalType": "address",
          "name": "operator",
          "type": "address"
        },
        {
          "internalType": "bool",
          "name": "approved",
          "type": "bool"
        }
      ],
      "name": "setApprovalForAll",
      "outputs": [],
      "stateMutability": "nonpayable",
      "type": "function"
    },
    {
      "inputs": [
        {
          "internalType": "bytes4",
          "name": "interfaceId",
          "type": "bytes4"
        }
      ],
      "name": "supportsInterface",
      "outputs": [
        {
          "internalType": "bool",
          "name": "",
          "type": "bool"
        }
      ],
      "stateMutability": "view",
      "type": "function"
    },
    {
      "inputs": [],
      "name": "symbol",
      "outputs": [
        {
          "internalType": "string",
          "name": "",
          "type": "string"
        }
      ],
      "stateMutability": "view",
      "type": "function"
    },
    {
      "inputs": [
        {
          "internalType": "uint256",
          "name": "tokenId",
          "type": "uint256"
        }
      ],
      "name": "tokenURI",
      "outputs": [
        {
          "internalType": "string",
          "name": "",
          "type": "string"
        }
      ],
      "stateMutability": "view",
      "type": "function"
    },
    {
      "inputs": [
        {
          "internalType": "address",
          "name": "from",
          "type": "address"
        },
        {
          "internalType": "address",
          "name": "to",
          "type": "address"
        },
        {
          "internalType": "uint256",
          "name": "tokenId",
          "type": "uint256"
        }
      ],
      "name": "transferFrom",
      "outputs": [],
      "stateMutability": "nonpayable",
      "type": "function"
    },
    {
      "inputs": [
        {
          "internalType": "address",
          "name": "newOwner",
          "type": "address"
        }
      ],
      "name": "transferOwnership",
      "outputs": [],
      "stateMutability": "nonpayable",
      "type": "function"
    }
  ],
  "bytecode": "0x60806040523480156200001157600080fd5b506040518060400160405280600d81526020017f42696f6d657472696344617461000000000000000000000000000000000000008152506040518060400160405280600281526020017f4345000000000000000000000000000000000000000000000000000000000000815250816000908051906020019062000096929190620001a6565b508060019080519060200190620000af929190620001a6565b505050620000d2620000c6620000d860201b60201c565b620000e060201b60201c565b620002bb565b600033905090565b6000600760009054906101000a900473ffffffffffffffffffffffffffffffffffffffff16905081600760006101000a81548173ffffffffffffffffffffffffffffffffffffffff021916908373ffffffffffffffffffffffffffffffffffffffff1602179055508173ffffffffffffffffffffffffffffffffffffffff168173ffffffffffffffffffffffffffffffffffffffff167f8be0079c531659141344cd1fd0a4f28419497f9722a3daafe3b4186f6b6457e060405160405180910390a35050565b828054620001b49062000256565b90600052602060002090601f016020900481019282620001d8576000855562000224565b82601f10620001f357805160ff191683800117855562000224565b8280016001018555821562000224579182015b828111156200022357825182559160200191906001019062000206565b5b50905062000233919062000237565b5090565b5b808211156200025257600081600090555060010162000238565b5090565b600060028204905060018216806200026f57607f821691505b602082108114156200028657620002856200028c565b5b50919050565b7f4e487b7100000000000000000000000000000000000000000000000000000000600052602260045260246000fd5b61344f80620002cb6000396000f3fe608060405234801561001057600080fd5b506004361061012c5760003560e01c80638da5cb5b116100ad578063b88d4fde11610071578063b88d4fde14610343578063c87b56dd1461035f578063e985e9c51461038f578063eca81d42146103bf578063f2fde38b146103ef5761012c565b80638da5cb5b1461028b57806395d89b41146102a957806399201555146102c7578063a22cb465146102f7578063b788735f146103135761012c565b806323b872dd116100f457806323b872dd146101e957806342842e0e146102055780636352211e1461022157806370a0823114610251578063715018a6146102815761012c565b806301ffc9a71461013157806306661abd1461016157806306fdde031461017f578063081812fc1461019d578063095ea7b3146101cd575b600080fd5b61014b600480360381019061014691906122d8565b61040b565b6040516101589190612793565b60405180910390f35b6101696104ed565b6040516101769190612a50565b60405180910390f35b6101876104fe565b60405161019491906127ae565b60405180910390f35b6101b760048036038101906101b29190612353565b610590565b6040516101c4919061272c565b60405180910390f35b6101e760048036038101906101e2919061229c565b610615565b005b61020360048036038101906101fe9190612117565b61072d565b005b61021f600480360381019061021a9190612117565b61078d565b005b61023b60048036038101906102369190612353565b6107ad565b604051610248919061272c565b60405180910390f35b61026b600480360381019061026691906120b2565b61085f565b6040516102789190612a50565b60405180910390f35b610289610917565b005b61029361099f565b6040516102a0919061272c565b60405180910390f35b6102b16109c9565b6040516102be91906127ae565b60405180910390f35b6102e160048036038101906102dc919061232a565b610a5b565b6040516102ee9190612793565b60405180910390f35b610311600480360381019061030c91906121e1565b610a89565b005b61032d60048036038101906103289190612353565b610a9f565b60405161033a91906127ae565b60405180910390f35b61035d60048036038101906103589190612166565b610bba565b005b61037960048036038101906103749190612353565b610c1c565b60405161038691906127ae565b60405180910390f35b6103a960048036038101906103a491906120db565b610c2e565b6040516103b69190612793565b60405180910390f35b6103d960048036038101906103d4919061221d565b610cc2565b6040516103e69190612a50565b60405180910390f35b610409600480360381019061040491906120b2565b610d81565b005b60007f80ac58cd000000000000000000000000000000000000000000000000000000007bffffffffffffffffffffffffffffffffffffffffffffffffffffffff1916827bffffffffffffffffffffffffffffffffffffffffffffffffffffffff191614806104d657507f5b5e139f000000000000000000000000000000000000000000000000000000007bffffffffffffffffffffffffffffffffffffffffffffffffffffffff1916827bffffffffffffffffffffffffffffffffffffffffffffffffffffffff1916145b806104e657506104e582610e79565b5b9050919050565b60006104f96008610ee3565b905090565b60606000805461050d90612cb4565b80601f016020809104026020016040519081016040528092919081815260200182805461053990612cb4565b80156105865780601f1061055b57610100808354040283529160200191610586565b820191906000526020600020905b81548152906001019060200180831161056957829003601f168201915b5050505050905090565b600061059b82610ef1565b6105da576040517f08c379a00000000000000000000000000000000000000000000000000000000081526004016105d190612990565b60405180910390fd5b6004600083815260200190815260200160002060009054906101000a900473ffffffffffffffffffffffffffffffffffffffff169050919050565b6000610620826107ad565b90508073ffffffffffffffffffffffffffffffffffffffff168373ffffffffffffffffffffffffffffffffffffffff161415610691576040517f08c379a0000000000000000000000000000000000000000000000000000000008152600401610688906129f0565b60405180910390fd5b8073ffffffffffffffffffffffffffffffffffffffff166106b0610f5d565b73ffffffffffffffffffffffffffffffffffffffff1614806106df57506106de816106d9610f5d565b610c2e565b5b61071e576040517f08c379a0000000000000000000000000000000000000000000000000000000008152600401610715906128d0565b60405180910390fd5b6107288383610f65565b505050565b61073e610738610f5d565b8261101e565b61077d576040517f08c379a000000000000000000000000000000000000000000000000000000000815260040161077490612a10565b60405180910390fd5b6107888383836110fc565b505050565b6107a883838360405180602001604052806000815250610bba565b505050565b6000806002600084815260200190815260200160002060009054906101000a900473ffffffffffffffffffffffffffffffffffffffff169050600073ffffffffffffffffffffffffffffffffffffffff168173ffffffffffffffffffffffffffffffffffffffff161415610856576040517f08c379a000000000000000000000000000000000000000000000000000000000815260040161084d90612910565b60405180910390fd5b80915050919050565b60008073ffffffffffffffffffffffffffffffffffffffff168273ffffffffffffffffffffffffffffffffffffffff1614156108d0576040517f08c379a00000000000000000000000000000000000000000000000000000000081526004016108c7906128f0565b60405180910390fd5b600360008373ffffffffffffffffffffffffffffffffffffffff1673ffffffffffffffffffffffffffffffffffffffff168152602001908152602001600020549050919050565b61091f610f5d565b73ffffffffffffffffffffffffffffffffffffffff1661093d61099f565b73ffffffffffffffffffffffffffffffffffffffff1614610993576040517f08c379a000000000000000000000000000000000000000000000000000000000815260040161098a906129b0565b60405180910390fd5b61099d6000611363565b565b6000600760009054906101000a900473ffffffffffffffffffffffffffffffffffffffff16905090565b6060600180546109d890612cb4565b80601f0160208091040260200160405190810160405280929190818152602001828054610a0490612cb4565b8015610a515780601f10610a2657610100808354040283529160200191610a51565b820191906000526020600020905b815481529060010190602001808311610a3457829003601f168201915b5050505050905090565b6000600960008361ffff16815260200190815260200160002060009054906101000a900460ff169050919050565b610a9b610a94610f5d565b8383611429565b5050565b60603373ffffffffffffffffffffffffffffffffffffffff16610ac1836107ad565b73ffffffffffffffffffffffffffffffffffffffff1614610b17576040517f08c379a0000000000000000000000000000000000000000000000000000000008152600401610b0e90612890565b60405180910390fd5b600a60008381526020019081526020016000208054610b3590612cb4565b80601f0160208091040260200160405190810160405280929190818152602001828054610b6190612cb4565b8015610bae5780601f10610b8357610100808354040283529160200191610bae565b820191906000526020600020905b815481529060010190602001808311610b9157829003601f168201915b50505050509050919050565b610bcb610bc5610f5d565b8361101e565b610c0a576040517f08c379a0000000000000000000000000000000000000000000000000000000008152600401610c0190612a10565b60405180910390fd5b610c1684848484611596565b50505050565b6060610c27826115f2565b9050919050565b6000600560008473ffffffffffffffffffffffffffffffffffffffff1673ffffffffffffffffffffffffffffffffffffffff16815260200190815260200160002060008373ffffffffffffffffffffffffffffffffffffffff1673ffffffffffffffffffffffffffffffffffffffff16815260200190815260200160002060009054906101000a900460ff16905092915050565b6000610ccc610f5d565b73ffffffffffffffffffffffffffffffffffffffff16610cea61099f565b73ffffffffffffffffffffffffffffffffffffffff1614610d40576040517f08c379a0000000000000000000000000000000000000000000000000000000008152600401610d37906129b0565b60405180910390fd5b6000610d4c8585611744565b905082600a60008381526020019081526020016000209080519060200190610d75929190611ec1565b50809150509392505050565b610d89610f5d565b73ffffffffffffffffffffffffffffffffffffffff16610da761099f565b73ffffffffffffffffffffffffffffffffffffffff1614610dfd576040517f08c379a0000000000000000000000000000000000000000000000000000000008152600401610df4906129b0565b60405180910390fd5b600073ffffffffffffffffffffffffffffffffffffffff168173ffffffffffffffffffffffffffffffffffffffff161415610e6d576040517f08c379a0000000000000000000000000000000000000000000000000000000008152600401610e64906127f0565b60405180910390fd5b610e7681611363565b50565b60007f01ffc9a7000000000000000000000000000000000000000000000000000000007bffffffffffffffffffffffffffffffffffffffffffffffffffffffff1916827bffffffffffffffffffffffffffffffffffffffffffffffffffffffff1916149050919050565b600081600001549050919050565b60008073ffffffffffffffffffffffffffffffffffffffff166002600084815260200190815260200160002060009054906101000a900473ffffffffffffffffffffffffffffffffffffffff1673ffffffffffffffffffffffffffffffffffffffff1614159050919050565b600033905090565b816004600083815260200190815260200160002060006101000a81548173ffffffffffffffffffffffffffffffffffffffff021916908373ffffffffffffffffffffffffffffffffffffffff160217905550808273ffffffffffffffffffffffffffffffffffffffff16610fd8836107ad565b73ffffffffffffffffffffffffffffffffffffffff167f8c5be1e5ebec7d5bd14f71427d1e84f3dd0314c0f7b2291e5b200ac8c7c3b92560405160405180910390a45050565b600061102982610ef1565b611068576040517f08c379a000000000000000000000000000000000000000000000000000000000815260040161105f906128b0565b60405180910390fd5b6000611073836107ad565b90508073ffffffffffffffffffffffffffffffffffffffff168473ffffffffffffffffffffffffffffffffffffffff1614806110e257508373ffffffffffffffffffffffffffffffffffffffff166110ca84610590565b73ffffffffffffffffffffffffffffffffffffffff16145b806110f357506110f28185610c2e565b5b91505092915050565b8273ffffffffffffffffffffffffffffffffffffffff1661111c826107ad565b73ffffffffffffffffffffffffffffffffffffffff1614611172576040517f08c379a000000000000000000000000000000000000000000000000000000000815260040161116990612810565b60405180910390fd5b600073ffffffffffffffffffffffffffffffffffffffff168273ffffffffffffffffffffffffffffffffffffffff1614156111e2576040517f08c379a00000000000000000000000000000000000000000000000000000000081526004016111d990612850565b60405180910390fd5b6111ed838383611808565b6111f8600082610f65565b6001600360008573ffffffffffffffffffffffffffffffffffffffff1673ffffffffffffffffffffffffffffffffffffffff16815260200190815260200160002060008282546112489190612bbc565b925050819055506001600360008473ffffffffffffffffffffffffffffffffffffffff1673ffffffffffffffffffffffffffffffffffffffff168152602001908152602001600020600082825461129f9190612b35565b92505081905550816002600083815260200190815260200160002060006101000a81548173ffffffffffffffffffffffffffffffffffffffff021916908373ffffffffffffffffffffffffffffffffffffffff160217905550808273ffffffffffffffffffffffffffffffffffffffff168473ffffffffffffffffffffffffffffffffffffffff167fddf252ad1be2c89b69c2b068fc378daa952ba7f163c4a11628f55a4df523b3ef60405160405180910390a461135e83838361180d565b505050565b6000600760009054906101000a900473ffffffffffffffffffffffffffffffffffffffff16905081600760006101000a81548173ffffffffffffffffffffffffffffffffffffffff021916908373ffffffffffffffffffffffffffffffffffffffff1602179055508173ffffffffffffffffffffffffffffffffffffffff168173ffffffffffffffffffffffffffffffffffffffff167f8be0079c531659141344cd1fd0a4f28419497f9722a3daafe3b4186f6b6457e060405160405180910390a35050565b8173ffffffffffffffffffffffffffffffffffffffff168373ffffffffffffffffffffffffffffffffffffffff161415611498576040517f08c379a000000000000000000000000000000000000000000000000000000000815260040161148f90612870565b60405180910390fd5b80600560008573ffffffffffffffffffffffffffffffffffffffff1673ffffffffffffffffffffffffffffffffffffffff16815260200190815260200160002060008473ffffffffffffffffffffffffffffffffffffffff1673ffffffffffffffffffffffffffffffffffffffff16815260200190815260200160002060006101000a81548160ff0219169083151502179055508173ffffffffffffffffffffffffffffffffffffffff168373ffffffffffffffffffffffffffffffffffffffff167f17307eab39ab6107e8899845ad3d59bd9653f200f220920489ca2b5937696c31836040516115899190612793565b60405180910390a3505050565b6115a18484846110fc565b6115ad84848484611812565b6115ec576040517f08c379a00000000000000000000000000000000000000000000000000000000081526004016115e3906127d0565b60405180910390fd5b50505050565b60606115fd82610ef1565b61163c576040517f08c379a000000000000000000000000000000000000000000000000000000000815260040161163390612970565b60405180910390fd5b600060066000848152602001908152602001600020805461165c90612cb4565b80601f016020809104026020016040519081016040528092919081815260200182805461168890612cb4565b80156116d55780601f106116aa576101008083540402835291602001916116d5565b820191906000526020600020905b8154815290600101906020018083116116b857829003601f168201915b5050505050905060006116e66119a9565b90506000815114156116fc57819250505061173f565b600082511115611731578082604051602001611719929190612708565b6040516020818303038152906040529250505061173f565b61173a846119e6565b925050505b919050565b6000806117516008610ee3565b90506009600082815260200190815260200160002060009054906101000a900460ff16156117b4576040517f08c379a00000000000000000000000000000000000000000000000000000000081526004016117ab90612a30565b60405180910390fd5b60016009600083815260200190815260200160002060006101000a81548160ff0219169083151502179055506117ea6008611a8d565b6117f48482611aa3565b6117fe8184611c7d565b8091505092915050565b505050565b505050565b60006118338473ffffffffffffffffffffffffffffffffffffffff16611cf1565b1561199c578373ffffffffffffffffffffffffffffffffffffffff1663150b7a0261185c610f5d565b8786866040518563ffffffff1660e01b815260040161187e9493929190612747565b602060405180830381600087803b15801561189857600080fd5b505af19250505080156118c957506040513d601f19601f820116820180604052508101906118c69190612301565b60015b61194c573d80600081146118f9576040519150601f19603f3d011682016040523d82523d6000602084013e6118fe565b606091505b50600081511415611944576040517f08c379a000000000000000000000000000000000000000000000000000000000815260040161193b906127d0565b60405180910390fd5b805181602001fd5b63150b7a0260e01b7bffffffffffffffffffffffffffffffffffffffffffffffffffffffff1916817bffffffffffffffffffffffffffffffffffffffffffffffffffffffff1916149150506119a1565b600190505b949350505050565b60606040518060400160405280600781526020017f697066733a2f2f00000000000000000000000000000000000000000000000000815250905090565b60606119f182610ef1565b611a30576040517f08c379a0000000000000000000000000000000000000000000000000000000008152600401611a27906129d0565b60405180910390fd5b6000611a3a6119a9565b90506000815111611a5a5760405180602001604052806000815250611a85565b80611a6484611d14565b604051602001611a75929190612708565b6040516020818303038152906040525b915050919050565b6001816000016000828254019250508190555050565b600073ffffffffffffffffffffffffffffffffffffffff168273ffffffffffffffffffffffffffffffffffffffff161415611b13576040517f08c379a0000000000000000000000000000000000000000000000000000000008152600401611b0a90612950565b60405180910390fd5b611b1c81610ef1565b15611b5c576040517f08c379a0000000000000000000000000000000000000000000000000000000008152600401611b5390612830565b60405180910390fd5b611b6860008383611808565b6001600360008473ffffffffffffffffffffffffffffffffffffffff1673ffffffffffffffffffffffffffffffffffffffff1681526020019081526020016000206000828254611bb89190612b35565b92505081905550816002600083815260200190815260200160002060006101000a81548173ffffffffffffffffffffffffffffffffffffffff021916908373ffffffffffffffffffffffffffffffffffffffff160217905550808273ffffffffffffffffffffffffffffffffffffffff16600073ffffffffffffffffffffffffffffffffffffffff167fddf252ad1be2c89b69c2b068fc378daa952ba7f163c4a11628f55a4df523b3ef60405160405180910390a4611c796000838361180d565b5050565b611c8682610ef1565b611cc5576040517f08c379a0000000000000000000000000000000000000000000000000000000008152600401611cbc90612930565b60405180910390fd5b80600660008481526020019081526020016000209080519060200190611cec929190611ec1565b505050565b6000808273ffffffffffffffffffffffffffffffffffffffff163b119050919050565b60606000821415611d5c576040518060400160405280600181526020017f30000000000000000000000000000000000000000000000000000000000000008152509050611ebc565b600082905060005b60008214611d8e578080611d7790612d17565b915050600a82611d879190612b8b565b9150611d64565b60008167ffffffffffffffff811115611dd0577f4e487b7100000000000000000000000000000000000000000000000000000000600052604160045260246000fd5b6040519080825280601f01601f191660200182016040528015611e025781602001600182028036833780820191505090505b5090505b60008514611eb557600182611e1b9190612bbc565b9150600a85611e2a9190612d60565b6030611e369190612b35565b60f81b818381518110611e72577f4e487b7100000000000000000000000000000000000000000000000000000000600052603260045260246000fd5b60200101907effffffffffffffffffffffffffffffffffffffffffffffffffffffffffffff1916908160001a905350600a85611eae9190612b8b565b9450611e06565b8093505050505b919050565b828054611ecd90612cb4565b90600052602060002090601f016020900481019282611eef5760008555611f36565b82601f10611f0857805160ff1916838001178555611f36565b82800160010185558215611f36579182015b82811115611f35578251825591602001919060010190611f1a565b5b509050611f439190611f47565b5090565b5b80821115611f60576000816000905550600101611f48565b5090565b6000611f77611f7284612a90565b612a6b565b905082815260208101848484011115611f8f57600080fd5b611f9a848285612c72565b509392505050565b6000611fb5611fb084612ac1565b612a6b565b905082815260208101848484011115611fcd57600080fd5b611fd8848285612c72565b509392505050565b600081359050611fef816133a6565b92915050565b600081359050612004816133bd565b92915050565b600081359050612019816133d4565b92915050565b60008151905061202e816133d4565b92915050565b600082601f83011261204557600080fd5b8135612055848260208601611f64565b91505092915050565b600082601f83011261206f57600080fd5b813561207f848260208601611fa2565b91505092915050565b600081359050612097816133eb565b92915050565b6000813590506120ac81613402565b92915050565b6000602082840312156120c457600080fd5b60006120d284828501611fe0565b91505092915050565b600080604083850312156120ee57600080fd5b60006120fc85828601611fe0565b925050602061210d85828601611fe0565b9150509250929050565b60008060006060848603121561212c57600080fd5b600061213a86828701611fe0565b935050602061214b86828701611fe0565b925050604061215c8682870161209d565b9150509250925092565b6000806000806080858703121561217c57600080fd5b600061218a87828801611fe0565b945050602061219b87828801611fe0565b93505060406121ac8782880161209d565b925050606085013567ffffffffffffffff8111156121c957600080fd5b6121d587828801612034565b91505092959194509250565b600080604083850312156121f457600080fd5b600061220285828601611fe0565b925050602061221385828601611ff5565b9150509250929050565b60008060006060848603121561223257600080fd5b600061224086828701611fe0565b935050602084013567ffffffffffffffff81111561225d57600080fd5b6122698682870161205e565b925050604084013567ffffffffffffffff81111561228657600080fd5b6122928682870161205e565b9150509250925092565b600080604083850312156122af57600080fd5b60006122bd85828601611fe0565b92505060206122ce8582860161209d565b9150509250929050565b6000602082840312156122ea57600080fd5b60006122f88482850161200a565b91505092915050565b60006020828403121561231357600080fd5b60006123218482850161201f565b91505092915050565b60006020828403121561233c57600080fd5b600061234a84828501612088565b91505092915050565b60006020828403121561236557600080fd5b60006123738482850161209d565b91505092915050565b61238581612bf0565b82525050565b61239481612c02565b82525050565b60006123a582612af2565b6123af8185612b08565b93506123bf818560208601612c81565b6123c881612e4d565b840191505092915050565b60006123de82612afd565b6123e88185612b19565b93506123f8818560208601612c81565b61240181612e4d565b840191505092915050565b600061241782612afd565b6124218185612b2a565b9350612431818560208601612c81565b80840191505092915050565b600061244a603283612b19565b915061245582612e5e565b604082019050919050565b600061246d602683612b19565b915061247882612ead565b604082019050919050565b6000612490602583612b19565b915061249b82612efc565b604082019050919050565b60006124b3601c83612b19565b91506124be82612f4b565b602082019050919050565b60006124d6602483612b19565b91506124e182612f74565b604082019050919050565b60006124f9601983612b19565b915061250482612fc3565b602082019050919050565b600061251c601683612b19565b915061252782612fec565b602082019050919050565b600061253f602c83612b19565b915061254a82613015565b604082019050919050565b6000612562603883612b19565b915061256d82613064565b604082019050919050565b6000612585602a83612b19565b9150612590826130b3565b604082019050919050565b60006125a8602983612b19565b91506125b382613102565b604082019050919050565b60006125cb602e83612b19565b91506125d682613151565b604082019050919050565b60006125ee602083612b19565b91506125f9826131a0565b602082019050919050565b6000612611603183612b19565b915061261c826131c9565b604082019050919050565b6000612634602c83612b19565b915061263f82613218565b604082019050919050565b6000612657602083612b19565b915061266282613267565b602082019050919050565b600061267a602f83612b19565b915061268582613290565b604082019050919050565b600061269d602183612b19565b91506126a8826132df565b604082019050919050565b60006126c0603183612b19565b91506126cb8261332e565b604082019050919050565b60006126e3601383612b19565b91506126ee8261337d565b602082019050919050565b61270281612c68565b82525050565b6000612714828561240c565b9150612720828461240c565b91508190509392505050565b6000602082019050612741600083018461237c565b92915050565b600060808201905061275c600083018761237c565b612769602083018661237c565b61277660408301856126f9565b8181036060830152612788818461239a565b905095945050505050565b60006020820190506127a8600083018461238b565b92915050565b600060208201905081810360008301526127c881846123d3565b905092915050565b600060208201905081810360008301526127e98161243d565b9050919050565b6000602082019050818103600083015261280981612460565b9050919050565b6000602082019050818103600083015261282981612483565b9050919050565b60006020820190508181036000830152612849816124a6565b9050919050565b60006020820190508181036000830152612869816124c9565b9050919050565b60006020820190508181036000830152612889816124ec565b9050919050565b600060208201905081810360008301526128a98161250f565b9050919050565b600060208201905081810360008301526128c981612532565b9050919050565b600060208201905081810360008301526128e981612555565b9050919050565b6000602082019050818103600083015261290981612578565b9050919050565b600060208201905081810360008301526129298161259b565b9050919050565b60006020820190508181036000830152612949816125be565b9050919050565b60006020820190508181036000830152612969816125e1565b9050919050565b6000602082019050818103600083015261298981612604565b9050919050565b600060208201905081810360008301526129a981612627565b9050919050565b600060208201905081810360008301526129c98161264a565b9050919050565b600060208201905081810360008301526129e98161266d565b9050919050565b60006020820190508181036000830152612a0981612690565b9050919050565b60006020820190508181036000830152612a29816126b3565b9050919050565b60006020820190508181036000830152612a49816126d6565b9050919050565b6000602082019050612a6560008301846126f9565b92915050565b6000612a75612a86565b9050612a818282612ce6565b919050565b6000604051905090565b600067ffffffffffffffff821115612aab57612aaa612e1e565b5b612ab482612e4d565b9050602081019050919050565b600067ffffffffffffffff821115612adc57612adb612e1e565b5b612ae582612e4d565b9050602081019050919050565b600081519050919050565b600081519050919050565b600082825260208201905092915050565b600082825260208201905092915050565b600081905092915050565b6000612b4082612c68565b9150612b4b83612c68565b9250827fffffffffffffffffffffffffffffffffffffffffffffffffffffffffffffffff03821115612b8057612b7f612d91565b5b828201905092915050565b6000612b9682612c68565b9150612ba183612c68565b925082612bb157612bb0612dc0565b5b828204905092915050565b6000612bc782612c68565b9150612bd283612c68565b925082821015612be557612be4612d91565b5b828203905092915050565b6000612bfb82612c48565b9050919050565b60008115159050919050565b60007fffffffff0000000000000000000000000000000000000000000000000000000082169050919050565b600061ffff82169050919050565b600073ffffffffffffffffffffffffffffffffffffffff82169050919050565b6000819050919050565b82818337600083830152505050565b60005b83811015612c9f578082015181840152602081019050612c84565b83811115612cae576000848401525b50505050565b60006002820490506001821680612ccc57607f821691505b60208210811415612ce057612cdf612def565b5b50919050565b612cef82612e4d565b810181811067ffffffffffffffff82111715612d0e57612d0d612e1e565b5b80604052505050565b6000612d2282612c68565b91507fffffffffffffffffffffffffffffffffffffffffffffffffffffffffffffffff821415612d5557612d54612d91565b5b600182019050919050565b6000612d6b82612c68565b9150612d7683612c68565b925082612d8657612d85612dc0565b5b828206905092915050565b7f4e487b7100000000000000000000000000000000000000000000000000000000600052601160045260246000fd5b7f4e487b7100000000000000000000000000000000000000000000000000000000600052601260045260246000fd5b7f4e487b7100000000000000000000000000000000000000000000000000000000600052602260045260246000fd5b7f4e487b7100000000000000000000000000000000000000000000000000000000600052604160045260246000fd5b6000601f19601f8301169050919050565b7f4552433732313a207472616e7366657220746f206e6f6e20455243373231526560008201527f63656976657220696d706c656d656e7465720000000000000000000000000000602082015250565b7f4f776e61626c653a206e6577206f776e657220697320746865207a65726f206160008201527f6464726573730000000000000000000000000000000000000000000000000000602082015250565b7f4552433732313a207472616e736665722066726f6d20696e636f72726563742060008201527f6f776e6572000000000000000000000000000000000000000000000000000000602082015250565b7f4552433732313a20746f6b656e20616c7265616479206d696e74656400000000600082015250565b7f4552433732313a207472616e7366657220746f20746865207a65726f2061646460008201527f7265737300000000000000000000000000000000000000000000000000000000602082015250565b7f4552433732313a20617070726f766520746f2063616c6c657200000000000000600082015250565b7f55736572206973206e6f7420746865206f776e65722100000000000000000000600082015250565b7f4552433732313a206f70657261746f7220717565727920666f72206e6f6e657860008201527f697374656e7420746f6b656e0000000000000000000000000000000000000000602082015250565b7f4552433732313a20617070726f76652063616c6c6572206973206e6f74206f7760008201527f6e6572206e6f7220617070726f76656420666f7220616c6c0000000000000000602082015250565b7f4552433732313a2062616c616e636520717565727920666f7220746865207a6560008201527f726f206164647265737300000000000000000000000000000000000000000000602082015250565b7f4552433732313a206f776e657220717565727920666f72206e6f6e657869737460008201527f656e7420746f6b656e0000000000000000000000000000000000000000000000602082015250565b7f45524337323155524953746f726167653a2055524920736574206f66206e6f6e60008201527f6578697374656e7420746f6b656e000000000000000000000000000000000000602082015250565b7f4552433732313a206d696e7420746f20746865207a65726f2061646472657373600082015250565b7f45524337323155524953746f726167653a2055524920717565727920666f722060008201527f6e6f6e6578697374656e7420746f6b656e000000000000000000000000000000602082015250565b7f4552433732313a20617070726f76656420717565727920666f72206e6f6e657860008201527f697374656e7420746f6b656e0000000000000000000000000000000000000000602082015250565b7f4f776e61626c653a2063616c6c6572206973206e6f7420746865206f776e6572600082015250565b7f4552433732314d657461646174613a2055524920717565727920666f72206e6f60008201527f6e6578697374656e7420746f6b656e0000000000000000000000000000000000602082015250565b7f4552433732313a20617070726f76616c20746f2063757272656e74206f776e6560008201527f7200000000000000000000000000000000000000000000000000000000000000602082015250565b7f4552433732313a207472616e736665722063616c6c6572206973206e6f74206f60008201527f776e6572206e6f7220617070726f766564000000000000000000000000000000602082015250565b7f4e465420616c7265616479206d696e7465642100000000000000000000000000600082015250565b6133af81612bf0565b81146133ba57600080fd5b50565b6133c681612c02565b81146133d157600080fd5b50565b6133dd81612c0e565b81146133e857600080fd5b50565b6133f481612c3a565b81146133ff57600080fd5b50565b61340b81612c68565b811461341657600080fd5b5056fea26469706673582212203fc4a968a786a9819478f67fb6ae20c361b37a57e356817851352d38e356e83964736f6c63430008040033",
  "linkReferences": {},
  "deployedLinkReferences": {}
}